:020000040000fa
:080000000002040000000000f2
:020000040000fa
:100008009a0200009a0200009a0200009a02000078
:100018009a0200009a0200009a0200009a02000068
:100028009a0200009a0200009a0200009a02000058
:100038009a0200009a0200009a0200009a02000048
:100048009a0200009a0200009a0200009a02000038
:100058009a0200009a0200009a0200009a02000028
:100068009a0200009a0200009a020000220300008f
:100078009a0200009a0200009a0200009a02000008
:100088009a0200009a0200009a0200009a020000f8
:100098009a0200009a0200009a0200009a020000e8
:1000a8009a0200009a0200009a0200009a020000d8
:1000b8009a0200009a0200009a0200009a020000c8
:1000c8009a0200009a0200009a0200009a020000b8
:1000d8009a0200009a0200009a0200009a020000a8
:1000e8009a0200009a0200009a0200009a02000098
:1000f8009a0200009a0200009a0200009a02000088
:100108009a0200009a0200009a0200009a02000077
:100118009a0200009a0200009a0200009a02000067
:100128009a0200009a0200009a0200009a02000057
:100138009a0200009a0200009a0200009a02000047
:100148009a0200009a0200009a0200009a02000037
:100158009a0200009a0200009a0200009a02000027
:100168009a0200009a0200009a0200009a02000017
:100178009a0200009a0200009a0200009a02000007
:100188009a0200009a0200009a0200009a020000f7
:100198009a0200009a0200009a0200009a020000e7
:1001a8009a0200009a0200009a0200009a020000d7
:1001b8009a0200009a0200009a0200009a020000c7
:1001c8009a0200009a0200009a0200009a020000b7
:1001d8009a0200009a0200009a0200009a020000a7
:1001e8009a0200009a0200009a0200009a02000097
:0801f8009a0200009a020000c7
:020000040000fa
:100208009a0200009a0200009a0200009a02000076
:100218009a0200009a0200009a0200009a02000066
:100228009a0200009a0200009a0200009a02000056
:100238009a0200009a0200009a0200009a02000046
:100248009a0200009a0200009a0200009a02000036
:100258009a0200009a0200009a0200009a02000026
:100268009a0200009a0200009a020000220300008d
:100278009a0200009a0200009a0200009a02000006
:100288009a0200009a0200009a0200009a020000f6
:100298009a0200009a0200009a0200009a020000e6
:1002a8009a0200009a0200009a0200009a020000d6
:1002b8009a0200009a0200009a0200009a020000c6
:1002c8009a0200009a0200009a0200009a020000b6
:1002d8009a0200009a0200009a0200009a020000a6
:1002e8009a0200009a0200009a0200009a02000096
:1002f8009a0200009a0200009a0200009a02000086
:100308009a0200009a0200009a0200009a02000075
:100318009a0200009a0200009a0200009a02000065
:100328009a0200009a0200009a0200009a02000055
:100338009a0200009a0200009a0200009a02000045
:100348009a0200009a0200009a0200009a02000035
:100358009a0200009a0200009a0200009a02000025
:100368009a0200009a0200009a0200009a02000015
:100378009a0200009a0200009a0200009a02000005
:100388009a0200009a0200009a0200009a020000f5
:100398009a0200009a0200009a0200009a020000e5
:1003a8009a0200009a0200009a0200009a020000d5
:1003b8009a0200009a0200009a0200009a020000c5
:1003c8009a0200009a0200009a0200009a020000b5
:1003d8009a0200009a0200009a0200009a020000a5
:1003e8009a0200009a0200009a0200009a02000095
:0803f8009a0200009a020000c5
:020000040000fa
:100400004f8020000e7f22000e01880000000000b7
:10041000000020000000e000020032000001200087
:10042000200288000c000700203e20000100200070
:1004300011000700000020000000e0000200320070
:100440000000020000000000dc02020000000000ca
:100450000040da000000fe004440a9000000200037
:100460000000e0000300320000002000a00188002e
:100470004440a80000000600910188008000780038
:100480000000eb0015003700e280400032a0b4000d
:100490009101ba00e280400032a0b4009102ba009b
:1004a000e280400032a0b4000002eb00472bde00e7
:1004b000f507b200602ce10004003a000059eb009f
:1004c0008301e900fdff3e00040037006128e100e0
:1004d000010032000082eb00040007001101ba00a5
:1004e0000200e000e8ff3a00000006003159ba00bf
:1004f0008301e9000c0032002159ba008301e900b0
:10050000080032000400e00003003a00e2804000ee
:1005100032a0b400f5ff370011d9ba008301e90019
:10052000faff3a008100e800e180400032a0b40008
:10053000000006000040da000000fe00839f680013
:100540000100e00002003d0060001000e0801800a3
:100550000300e00002003d0060011100e08119008d
:10056000050007004f00e00002003b0060001000a3
:10057000e0801800000006006022b800060220009b
:100580000000d0008180d2000482d2008582d20097
:100590000000a0000202520083825a0003003100d2
:1005a0000202420083824a000000a1000603e90023
:0805b000f3ff3a000000060011
:020000040000fa
:1005b8000000fa006d0007007700070060000700e0
:1005c8000002eb000440880004408000e10f520064
:1005d8000a003200e10f520003003900e20f520016
:1005e8000b00320011003700c402a900c422a80081
:1005f80014002000144088000f003700c402a8002f
:10060800c422a9000002eb00144088000a00370049
:100618005416800064026200e00f520002003200ab
:100628001440800004408800030037000002eb00fb
:100638000440880000000000e3ff37003600f8009f
:10064800809fbe00829fbe00849fbe00869fbe0022
:100658003400f80000002000a00188000000fa0023
:10066800803821000b0007008660a90024002000c4
:10067800044088000080fa003400f9004f03be00ef
:100688004f02be004f01be004f00be003600f90009
:10069800004006000200fa00000f78001e027800f1
:1006a8000500200002242400f30020000400be00fe
:1006b800a0ff07000002be00602bb9000603780007
:1006c800170e200007a0b900800378000703430035
:1006d800840278000002eb00042ab80005034300f6
:1006e80086027800e00f5200e08f5a0002003d00b9
:1006f80067024200e0824a004d2bdd004322de0003
:1007080004027300c3aade00040278000402e900b0
:10071800640888000002eb00340888008460a9009f
:100728000000000025048000040820000482620004
:10073800e00f5200fbff32000080fa0000000600c4
:100748000000fa000002eb003408880084088000ea
:100758000440a0000450a1008408880084e0a90097
:1007680011e1a9000080fa00000006000000fa006c
:10077800c002a900c022a900c402a800c422a8007f
:10078800c602a800c622a8002c03a8002c23a80093
:100798000080fa00000006000000fa002c83a80080
:1007a8008660a9009660a800c842a80068c0a80092
:0c07b80060c0a8000080fa0000000600ed
:020000040000fa
:1007c4000008000004000000000000000000000019
:020000040000fa
:020000040001f9
:0457f800ad7b000085
:020000040000fa
:020000040001f9
:0457fc003f3f00002b
:00000001FF
