:020000040000fa
:080000000002040000000000f2
:020000040000fa
:100008009a0200009a0200009a0200009a02000078
:100018009a0200009a0200009a0200009a02000068
:100028009a0200009a0200009a0200009a02000058
:100038009a0200009a0200009a0200009a02000048
:020000040000fa
:020000040000fa
:100400000f8020000e7f22000e01880000000000f7
:10041000000020000000e000020032000001200087
:10042000200288000c000700004f2000010020007f
:1004300011000700000020000000e0000200320070
:100440000000020000000000ea04020000000000ba
:100450000040da000000fe004440a90080002000b7
:100460000000e0000300320000002000a00188002e
:100470004440a80000000600910188008000780038
:100480000000eb0015003700e280400032a0b4000d
:100490009101ba00e280400032a0b4009102ba009b
:1004a000e280400032a0b4000002eb00472bde00e7
:1004b000f507b200602ce10004003a000059eb009f
:1004c0008301e900fdff3e00040037006128e100e0
:1004d000010032000082eb00040007001101ba00a5
:1004e0000200e000e8ff3a00000006003159ba00bf
:1004f0008301e9000c0032002159ba008301e900b0
:10050000080032000400e00003003a00e2804000ee
:1005100032a0b400f5ff370011d9ba008301e90019
:10052000faff3a008100e800e180400032a0b40008
:0c053000000006000040da000000fe00a1
:020000040000fa
:10053c00486500006c6c00006f210000000000009a
:020000040000fa
:10054c000800fa00004f7800110798002207980065
:10055c00330798003e029000e00f52000900320071
:10056c0065168000f4ff2000848262001e43780030
:10057c000682fb004c22dd00050272006416880026
:10058c000a00370065168000f4ff200084826200a8
:10059c001e4278000483fb00040f20000402630059
:1005ac004822dd0005027200641688001e029000cd
:1005bc0004427800614262000482fb006102620026
:1005cc004722dd0066168000f5f72f0085026300d8
:1005dc00050272006416880010002000bb000700a2
:1005ec00ccc2a80010002000b8000700ccc2a900a3
:1005fc0010002000b50007002e009000b30007008b
:10060c000080fa00000006000600fa00004f780097
:10061c0011079800220798008001eb002e01900032
:10062c009e0090001e407800c5ff070013002000bc
:10063c002e0190009e0090001e407800c0ff070025
:10064c000080fa00000006000200fa00004f78005b
:10065c001e427800e20220001100200004407800c5
:10066c00e9ff07000080fa00000006000000fa0015
:10067c000002eb0064168800c8e2a900c8c2a900f9
:10068c00cda2a900cd82a900ccc2a80010002000e8
:10069c008e000700ccc2a900100020008b000700c0
:1006ac004000210089000700ccc2a80010002000e7
:1006bc0086000700ccc2a9001000200083000700b0
:1006cc004006200081000700ccc2a80010002000ca
:1006dc007e000700ccc2a900100020007b000700a0
:1006ec0065168000f4ff2200048262006416880004
:1006fc00ccc2a8001000200074000700ccc2a900d6
:10070c001000200071000700800220006f0007001d
:10071c00820220008000eb00c0c2b300baff0700c9
:10072c00820220008000eb0080c0b300b6ff0700ff
:10073c00823e20008000eb0010c0b300b2ff070027
:10074c00820220008000eb0060c0b300aeff070007
:10075c00820220008000eb00c0c0b300aaff07009b
:10076c000080fa00000006000200fa00000f78007a
:10077c00070037001e02780014427800e2022000c5
:10078c0011002000044078009fff07001e0fe800b6
:10079c001e027800e00f5200f6ff3a000080fa00cb
:1007ac00000006000000fa00421f20008000eb0051
:1007bc0010c0b30094ff07000080fa000000060090
:1007cc000200fa00004f7800114798001e4290007a
:1007dc00e14f520007003a0004c8b3001e42420029
:1007ec00820220008000eb000440780086ff0700a6
:1007fc000600370004ccb3001e42420082022000e7
:10080c008000eb00044078007fff07000080fa00b6
:10081c00000006000200fa0094ff07000002eb0043
:10082c00040f780030c6b30087ff07000002eb000e
:10083c00040f780003003700803e200023000700df
:10084c001e0fe800743e20009e027800848f520038
:10085c00f9ff3400d3ff0700e0292800c2ff07008e
:10086c0021c0b30010c0b300d5ff07000002eb009d
:10087c00040f780003003700803e200013000700af
:10088c001e0fe800743e20009e027800848f5200f8
:10089c00f9ff3400e0292800b3ff07000002eb0049
:1008ac00040f780003003700803e2000070007008b
:1008bc001e0fe800743e20009e027800848f5200c8
:1008cc00f9ff34000080fa00000006000200fa0074
:1008dc00000f78000002eb00340888001e0278003c
:1008ec006e22b900040278006408880084e0a90034
:1008fc00840880000440a1000450a10084088800f2
:10090c0011e1a8000000000025048000040820006c
:10091c0004826200e00f5200fbff320011e1a900db
:10092c000080fa00000006000000fa000002eb0054
:10093c0034088800f43f22006408880084e0a90091
:10094c00840880000440a0000450a10084088800a2
:10095c0011e1a8000000000025048000040820001c
:10096c0004826200e00f5200fbff320011e1a9008b
:10097c000080fa00000006000000fa00c002a90086
:10098c00c022a900c402a800c422a800c602a80064
:10099c00c622a8002c03a8002c23a8000080fa0073
:1009ac00000006000000fa002c83a8008660a90055
:1009bc009660a800c842a80068c0a80060c0a80043
:1009cc000080fa00000006000000fa0091ff07000a
:0409dc00feff3700e3
:020000040000fa
:0409e0000000000013
:020000040000fa
:020000040001f9
:0457f800ad7b000085
:020000040000fa
:020000040001f9
:0457fc003f3f00002b
:00000001FF
