:020000040000fa
:080000000002040000000000f2
:020000040000fa
:100008009a0200009a0200009a0200009a02000078
:100018009a0200009a0200009a0200009a02000068
:100028009a0200009a0200009a0200009a02000058
:100038009a0200009a0200009a0200009a02000048
:100048009a0200009a0200009a0200009a02000038
:100058009a0200009a0200009a0200009a02000028
:100068009a0200009a0200009a020000ca050000e5
:100078009a0200009a0200009a0200009a02000008
:100088009a0200009a0200009a0200009a020000f8
:100098009a0200009a0200009a0200009a020000e8
:1000a8009a0200009a0200009a0200009a020000d8
:1000b8009a0200009a0200009a0200009a020000c8
:1000c8009a0200009a0200009a0200009a020000b8
:1000d8009a0200009a0200009a0200009a020000a8
:1000e8009a0200009a0200009a0200009a02000098
:1000f8009a0200009a0200009a0200009a02000088
:100108009a0200009a0200009a0200009a02000077
:100118009a0200009a0200009a0200009a02000067
:100128009a0200009a0200009a0200009a02000057
:100138009a0200009a0200009a0200009a02000047
:100148009a0200009a0200009a0200009a02000037
:100158009a0200009a0200009a0200009a02000027
:100168009a0200009a0200009a0200009a02000017
:100178009a0200009a0200009a0200009a02000007
:100188009a0200009a0200009a0200009a020000f7
:100198009a0200009a0200009a0200009a020000e7
:1001a8009a0200009a0200009a0200009a020000d7
:1001b8009a0200009a0200009a0200009a020000c7
:1001c8009a0200009a0200009a0200009a020000b7
:1001d8009a0200009a0200009a0200009a020000a7
:1001e8009a0200009a0200009a0200009a02000097
:0801f8009a0200009a020000c7
:020000040000fa
:100208009a0200009a0200009a0200009a02000076
:100218009a0200009a0200009a0200009a02000066
:100228009a0200009a0200009a0200009a02000056
:100238009a0200009a0200009a0200009a02000046
:100248009a0200009a0200009a0200009a02000036
:100258009a0200009a0200009a0200009a02000026
:100268009a0200009a0200009a020000ca050000e3
:100278009a0200009a0200009a0200009a02000006
:100288009a0200009a0200009a0200009a020000f6
:100298009a0200009a0200009a0200009a020000e6
:1002a8009a0200009a0200009a0200009a020000d6
:1002b8009a0200009a0200009a0200009a020000c6
:1002c8009a0200009a0200009a0200009a020000b6
:1002d8009a0200009a0200009a0200009a020000a6
:1002e8009a0200009a0200009a0200009a02000096
:1002f8009a0200009a0200009a0200009a02000086
:100308009a0200009a0200009a0200009a02000075
:100318009a0200009a0200009a0200009a02000065
:100328009a0200009a0200009a0200009a02000055
:100338009a0200009a0200009a0200009a02000045
:100348009a0200009a0200009a0200009a02000035
:100358009a0200009a0200009a0200009a02000025
:100368009a0200009a0200009a0200009a02000015
:100378009a0200009a0200009a0200009a02000005
:100388009a0200009a0200009a0200009a020000f5
:100398009a0200009a0200009a0200009a020000e5
:1003a8009a0200009a0200009a0200009a020000d5
:1003b8009a0200009a0200009a0200009a020000c5
:1003c8009a0200009a0200009a0200009a020000b5
:1003d8009a0200009a0200009a0200009a020000a5
:1003e8009a0200009a0200009a0200009a02000095
:0803f8009a0200009a020000c5
:020000040000fa
:100400004f8020000e7f22000e01880000000000b7
:10041000000020000000e000020032000001200087
:10042000200288000c000700606920000100200005
:1004300011000700000020000000e0000200320070
:10044000000002000000000084050200000000001f
:100450000040da000000fe004440a9000000200037
:100460000000e0000300320000002000a00188002e
:100470004440a80000000600910188008000780038
:100480000000eb0015003700e280400032a0b4000d
:100490009101ba00e280400032a0b4009102ba009b
:1004a000e280400032a0b4000002eb00472bde00e7
:1004b000f507b200602ce10004003a000059eb009f
:1004c0008301e900fdff3e00040037006128e100e0
:1004d000010032000082eb00040007001101ba00a5
:1004e0000200e000e8ff3a00000006003159ba00bf
:1004f0008301e9000c0032002159ba008301e900b0
:10050000080032000400e00003003a00e2804000ee
:1005100032a0b400f5ff370011d9ba008301e90019
:10052000faff3a008100e800e180400032a0b40008
:10053000000006000040da000000fe0003f0a20008
:10054000889fbe008a9fbe008c1f7800f3000700c2
:10055000fa0033006450e1004f0032006420e100f3
:100560005200320003826c0007003b000905d000f6
:100570000306d000820f54000c065d000200390013
:100580000200320089017800030678008582550058
:1005900004003d000003fd008103fd008502ea0028
:1005a0008b854200840f720002003b006000100047
:1005b000e08018006011b8000005eb007a28e10027
:1005c0000a00390006007800c75ddd00f707b200b9
:1005d000878075002d003700828171000a01780044
:1005e000610560008180d1000080d3008502e900b0
:1005f000f9ff3b00060440008784480002003b00ee
:1006000060041400e0841c000988a3000700320085
:100610008a81710082817100610164008904d100c6
:100620000884d3008b05e800170037000978a30081
:1006300013003a000b00e000130034008b05e900c2
:100640000804440089844c000a4474000978a3001b
:100650000d003a000b00e000070034008b05e900b4
:100660000804440089844c0001003a000b0020007b
:100670000978a300f7ff32000001eb000200370009
:10068000828171000a017800690007000cf0a70060
:1006900001f0a000b20037006420e10002003a003f
:1006a000838f6c00b20033000801be000200be0060
:1006b000ab003700889fbe008a9fbe008c1f780069
:1006c000960007009d00330003866c006450e10033
:1006d0002e0032006420e100330032006150e1005e
:1006e0002f0032006120e100310032008585550085
:1006f000eb07b000090020000804200005003700c7
:100700000804440089844c000a00310006034300b9
:1007100087834b000001530081815b00f8ff3300a9
:100720000203be000800a0000804440089844c00b5
:10073000f6ff3900c639dd00830173000100320085
:10074000130020008904d1000884d3000998a30075
:10075000050032000800a7000300a0008904d100b2
:100760000884d3008b05e8008904d1000884d300f5
:100770000001eb000281d2002d00070001f0a10072
:100780000cf0a70001f0a000750037006420e10024
:10079000770032000801be000200be00f7ff3700fc
:1007a0006120e100720032006000b800f3ff370002
:1007b0000000200001f82700f0ff37000001be0014
:1007c000410007000470a70003f0a10003f8a30094
:1007d00013003a006509b10010003200090035002d
:1007e0006928e10002003500010028000000050032
:1007f00000004000818048008502e900fcff3a00cb
:1008000000000600f88f4200050035008100d1008d
:100810000080d3008502e800fcff3a0000000600db
:100820008000eb00000005006011b8008700370071
:1008300081002000618055000b003d000b0020006e
:1008400061fe2f000100e1001d0034008281710073
:10085000610164008904d1000884d3000000e8002d
:10086000faff3a007100200061006400030070008c
:10087000020060000900320061044400e0844c0082
:100880000988a500050032008b05e8006808e10032
:1008900002003a008904d1000884d300f20f20003e
:1008a0000258e10005003d00c75ddd00f907b20018
:1008b0008980750008007800000006000bf827000a
:1008c0008b00780000000500c70ade00f107b200c7
:1008d000f50fb20008003200e1cf42000200320002
:1008e0000170a00024000500810f7000010032009b
:1008f0000408050044000500810f700002003a0062
:10090000140005008502e9000000400081c0480095
:10091000fcff3b000170a000240005000004be00a5
:10092000e9ff07000003be000405be000200be0090
:10093000e5ff0700844f7500000006000200be00be
:100940006450e100050036006420e100020036003a
:100950000968a30001003a000800be000160a00081
:100960004f0678004f05be004f04be000000060091
:10097000f0ff2f00f1ff2700f9ff3700889fbe002e
:100980008a9fbe008c1f7800e4ff0700ebff330056
:1009900003866c006450e100240032006420e10012
:1009a000270032006150e100220032006120e100a6
:1009b000210032008b854200eb07b1000134b80002
:1009c000003ab8000804420089844a00013ab8009d
:1009d0000030b8008880400009014a00040033005c
:1009e0000000400081804800020149008b05e900b9
:1009f000c909dd00830170000100320013002000ee
:100a0000c814de004814dd004709de001200b20001
:100a1000c808de000884700085ff070001f0a1000f
:100a20000cf0a70001f0a000cdff37006120e1002d
:100a3000cfff32000801be000200be00f7ff370002
:100a40006150e100fcff3a00c9ff3700889fbe00fb
:100a50008a9fbe000082700004027100048271004f
:100a6000260032000004be000200be006011b80083
:100a70006b092000950220000182cf000a00390096
:100a80000541b1000082cf00070039000541b100e7
:100a90000982cf00040039000541b1000882cf006f
:100aa000010039000541b100054252001200320038
:100ab0000a003b0082817100610164008100d10065
:100ac0000080d3008984d3000884d3008b05e8001c
:100ad0000442e800f7ff3a0007003700080444002a
:100ae00089844c0000004800818048008b05e900a3
:100af0000442e900f9ff3a004dff07004f05be0030
:080b00004f04be0000000600d6
:020000040000fa
:100b08000000fa00730007007d0007006600070078
:100b18000002eb000440880004408000e10f52000e
:100b28000a003200e10f520003003900e20f5200c0
:100b38000b00320011003700c402a900c422a8002b
:100b480014002000144088000f003700c402a800d9
:100b5800c422a9000002eb00144088000a003700f4
:100b68005416800064026200e00f52000200320056
:100b78001440800004408800030037000002eb00a6
:100b88000440880000000000e3ff37003600f8004a
:100b9800809fbe00829fbe00849fbe00869fbe00cd
:100ba8003400f80000002000a00188000000fa00ce
:100bb8008660a900803821000f00070055168000c4
:100bc8000402200004826200e00f5200020032009a
:100bd80024002000044088000080fa003400f90056
:100be8004f03be004f02be004f01be004f00be00c3
:100bf8003600f900004006000400fa0010079800cb
:100c08001e029000050020000400be0004ff07003b
:100c18000002be000200200013b624000400be003b
:100c280054ff07000002be00024022004397240040
:100c38000400be009dfe07000002be000200200066
:100c4800031024000400be0098fe07000002be0046
:100c58000200200003f823000400be0035fe070050
:100c68000002be000400be00d2fe07000002be0063
:100c7800040f78001e027800640888000002eb0068
:100c88003408880084e0a9000000000025048000e2
:100c98000408200004826200e00f5200fbff3200cb
:100ca8000080fa00000006000000fa000002eb00d5
:100cb80034088800840880000440a0000450a10083
:100cc8008408880084e0a90011e1a8000080fa00e7
:100cd800000006000000fa00c002a900c022a90016
:100ce800c402a800c422a800c602a800c622a80000
:100cf8002c03a8002c23a8000080fa00000006009e
:100d08000000fa002c83a8008660a9009660a8005d
:100d1800c842a80068c0a80060c0a8000080fa0007
:040d280000000600c1
:020000040000fa
:100d2c0000080000040000000000000000000000ab
:020000040000fa
:020000040001f9
:0457f800ad7b000085
:020000040000fa
:020000040001f9
:0457fc003f3f00002b
:00000001FF
